:03000000020BB63A
:0C0BB600787FE4F6D8FD758129020BFD64
:100C9100456E7465722050617373776F72644C6F27
:100CA100636B6572204F70656E57726F6E6720506F
:100CB100617373776F7264380F060180C0C0C1C25F
:010CC100C36F
:100D25000A1200000002000900040000021E000073
:080D350002200000021C000076
:10080000C2B4C2B775A0F7E5A054F0F52364E07058
:10081000F3120C4275A0FEE5A054F0F52364E070DD
:100820001C120CE7051FE51F7002051E120D0CE5DA
:100830001F25E02408F876000876018042E523644D
:10084000D0701C120CE7051FE51F7002051E120D6B
:100850000CE51F25E02408F876000876028020E5E4
:100860002364B07020120CE7051FE51F7002051EFF
:10087000120D0CE51F25E02408F876000876031217
:100880000AFA120A1075A0FDE5A054F0F52364E001
:10089000701C120CE7051FE51F7002051E120D0CDF
:1008A000E51F25E02408F876000876048042E52359
:1008B00064D0701C120CE7051FE51F7002051E12A4
:1008C0000D0CE51F25E02408F87600087605802049
:1008D000E52364B07020120CE7051FE51F700205C8
:1008E0001E120D0CE51F25E02408F8760008760698
:1008F000120AFA120A1075A0FBE5A054F0F5236461
:10090000E0701C120CE7051FE51F7002051E120D9A
:100910000CE51F25E02408F876000876078042E5FC
:100920002364D0701C120CE7051FE51F7002051E22
:10093000120D0CE51F25E02408F8760008760880E3
:1009400020E52364B07020120CE7051FE51F70023C
:10095000051E120D0CE51F25E02408F87600087628
:1009600009120AFA120A1075A0F7E5A054F0F5234F
:1009700064E07051120CE7E4F528D3E52894047480
:10098000809480500A120D67120CC2052880EBE497
:10099000F526D3E526940D74809480500A120D53E9
:1009A000120CC2052680EB75903C120D6F120CC222
:1009B0007590C0120D6F120CC2E4F520F521F51EE2
:1009C000F51F020814E52364D07022120CE7051FFE
:1009D000E51F7002051E120D0CE51F25E02408F826
:1009E000E4F608F6120AFA120A10020814E5236463
:1009F000B06003020814120CE7C2B4E4F51EF51F40
:100A0000F520F521759008120D6F120CC202081422
:080D5300E526900C9193F59048
:0C0D5B00D2B0C2B1D2B2120CC2C2B2229D
:080D6700E528900CB893F5900B
:0C0D6F00C2B0C2B1D2B2120CC2C2B22299
:100CC200752401C3E52494C87480948050040524DB
:100CD20080F1752501D3E52594C874809480500471
:050CE200052580F12250
:100AFA00E51E6003020BB5E51F24FE603A14605E32
:100B0A00147003020B8F24036003020BB5AF1FEFAF
:100B1A0025E02412F8E6FC08E6FDEF25E02408F8B3
:100B2A00E6FE08E66D7002EE6C6003020BB5052165
:100B3A00E5217002052022AF1FEF25E02412F8E616
:100B4A00FC08E6FDEF25E02408F8E6FE08E66D70ED
:100B5A0002EE6C70560521E5217002052022AF1FB6
:100B6A00EF25E02412F8E6FC08E6FDEF25E024086C
:100B7A00F8E6FE08E6B50533EEB5042F0521E521B2
:100B8A007002052022AF1FEF25E02412F8E6FC08C8
:100B9A00E6FDEF25E02408F8E6FE08E6B5050CEECA
:0C0BAA00B504080521E521700205202299
:100A1000E51F6404451E6003020AF9E521640445EC
:100A2000206003020AA4D2B4F528D3E52894047404
:100A3000809480500A120D67120CC2052880EBE4E6
:100A4000F522D3E522940A748094805012E5229016
:100A50000C9F93F590120D5B120CC2052280E3E40B
:100A6000F520F521F51EF51FF51CF51D75A0F7E520
:100A7000A054F0F52364E07003020AF6E52364B0A5
:100A800070EA120CE7C2B4E4F51EF51FF520F5215B
:100A9000759001120D6F120CC2759002120D6F123B
:100AA0000CC280C8C2B4E4F528D3E528940474804D
:100AB0009480500A120D67120CC2052880EBE4F5F1
:100AC00027D3E527940D748094805012E527900C6D
:100AD000AA93F590120D5B120CC2052780E3051D49
:100AE000E51D7002051C120D3E75A0F7E5A054F03F
:0A0AF000F52364E070F3120C4222BB
:100D0C0074BD251FF582740C351EF583E493F590A4
:090D1C00120D6F75902A020D5BA7
:100CE700E4F529D3E5299404748094805016758916
:100CF70001758C3C758AB0D28C308DFDC28CC28D4B
:050D0700052980DF2238
:100D3E00D3E51D9402E51C648094804007E4F5A081
:050D4E00D2B780FC2279
:100C4200120CE7E4F528D3E52894047480948050CC
:100C52000A120D67120CC2052880EBE4F526D3E5D3
:100C620026940D74809480500A120D53120CC20502
:100C72002680EB75903C120D6F120CC27590C0125B
:0F0C82000D6F120CC2E4F520F521F51EF51F22AF
:100BC200020800E493A3F8E493A34003F68001F241
:100BD20008DFF48029E493A3F85407240CC8C33334
:100BE200C4540F4420C8834004F456800146F6DF03
:100BF200E4800B0102040810204080900D25E47E61
:100C0200019360BCA3FF543F30E509541FFEE493F7
:100C1200A360010ECF54C025E060A840B8E493A3BE
:100C2200FAE493A3F8E493A3C8C582C8CAC583CAE9
:100C3200F0A3C8C582C8CAC583CADFE9DEE780BEA1
:010D3D0000B5
:00000001FF
